:020000040800F2
:10000000680602207D0200088502000887020008B9
:10001000890200088B0200088D0200080000000021
:100020000000000000000000000000008F02000837
:1000300091020008000000009302000895020008E9
:10004000970200089702000897020008970200082C
:10005000970200089702000897020008970200081C
:10006000970200089702000897020008970200080C
:1000700097020008970200089702000897020008FC
:1000800097020008970200089702000897020008EC
:1000900097020008970200089702000897020008DC
:1000A00097020008970200089702000897020008CC
:1000B00097020008970200089702000897020008BC
:1000C00097020008970200089702000897020008AC
:1000D000970200089702000897020008970200089C
:1000E000970200089702000897020008970200088C
:1000F000970200089702000897020008970200087C
:10010000970200089702000897020008970200086B
:10011000970200089702000897020008970200085B
:10012000970200089702000897020008970200084B
:10013000970200089702000897020008970200083B
:10014000970200089702000897020008970200082B
:10015000970200089702000897020008970200081B
:10016000970200089702000897020008970200080B
:10017000970200089702000897020008000000009C
:1001800097020008970200089702000897020008EB
:1001900097020008970200089702000897020008DB
:1001A00097020008970200089702000897020008CB
:1001B00097020008970200089702000897020008BB
:1001C000970200089702000800000000970200084C
:1001D000970200089702000897020008970200089B
:1001E000970200089702000897020008970200088B
:1001F000970200089702000800F002F800F02EF8BD
:100200000AA090E8000C82448344AAF10107DA4571
:1002100001D100F023F8AFF2090EBAE80F0013F095
:10022000010F18BFFB1A43F001031847CC0100006F
:10023000DC0100000023002400250026103A28BF1E
:1002400078C1FBD8520728BF30C148BF0B60704748
:100250001FB500F0C3F81FBD10B510BD00F031F898
:100260001146FFF7F5FF00F077F800F04FF803B400
:10027000FFF7F2FF03BC00F057F800000948804781
:1002800009480047FEE7FEE7FEE7FEE7FEE7FEE778
:10029000FEE7FEE7FEE7FEE704480549054A064B90
:1002A0007047000039030008F901000868000220C7
:1002B0006806022068020220680202207047704728
:1002C0007047754600F02CF8AE4605006946534667
:1002D00020F00700854618B020B5FFF7DDFFBDE828
:1002E00020404FF000064FF000074FF000084FF09D
:1002F000000BAC46ACE8C009ACE8C009ACE8C009EA
:10030000ACE8C00921F007018D46704710B50446DE
:10031000AFF300802046BDE81040FFF7A8BF000003
:10032000004870470000022001491820ABBEFEE7DC
:1003300026000200704700004EF68850CEF2000002
:10034000016841F4700101604FF0006140F8801CC9
:10035000704700000000000043F6300140F200400A
:10036000C4F20201C4F202004FF0000C44F2810E0C
:100370000A6842F002020A6044F201020168C1F216
:1003800000021143016041684160836844F23F21EB
:100390001A43826048F20103C268C0F20023C0F22F
:1003A0000F011A43C26040F260024FF48043C2F270
:1003B000020200BFC2F800C0C0F814E014688C420A
:1003C00004F101041460F7DBC2F800C04361146853
:1003D0008C4204F101041460F8DBEBE7F1EE100A43
:1003E0004FF6FF71C0F2C03120EA010040F04070CA
:1003F000E1EE100A70470000080400080000022027
:08040000680600003402000848
:040000050800027D70
:00000001FF
